:1070000070C0000089C0000087C0000085C000007B
:1070100083C0000081C000007FC000007DC0000070
:107020007BC0000079C000000AC5000075C00000E8
:1070300073C0000071C000006FC000006DC0000090
:107040006BC000003DC1000067C0000065C00000CB
:1070500063C0000061C000005FC000005DC00000B0
:107060005BC0000059C0000057C0000055C00000C0
:1070700053C0000051C000004FC000004DC00000D0
:107080004BC0000049C0000047C0000045C00000E0
:1070900043C0000041C000003FC000003DC00000F0
:1070A0003BC0000039C0000037C00000FC010A01ED
:1070B00067BFE895112407B600FCFDCF667031F07C
:1070C000452B21F481E180935700E8950895873E90
:1070D000A03E443FA03E443FD53EF73E443F173FCD
:1070E000293F11241FBECFEFDAE0DEBFCDBF11E094
:1070F000A0E0B1E0E2E1FFE702C005900D92A83BFD
:10710000B107D9F721E0A8EBB1E001C01D92AA3C7C
:10711000B207E1F783D3FBC673CF84E08093E90025
:107120008091E80085FD0EC08091E8008B77809308
:10713000E8008091E80082FDF3CF8EB38111F9CF92
:1071400080E008958091F100089593E09093E90024
:107150009091E80095FF03C08093F100089590910D
:10716000E8009E779093E8009091E80090FDF4CFBE
:107170009EB39111F9CF0895F89410926F00109278
:107180008100109285001092840081E085BF15BEB9
:1071900047980C94000008958091BE019091BF0122
:1071A00001969093BF018093BE01292F97FF02C0E3
:1071B0002EEF291B220F281710F447980895479A9D
:1071C00008950F931F93CF93DF93E0E0F8E3459189
:1071D0005491CA0101978F3F974308F040C020E0C7
:1071E00030E0C1E0D3E015E001E1C901B901605828
:1071F0007F4F8617970768F4FC01EE5FF74CA59167
:10720000B491FC010D01C0935700E895112402963A
:10721000F0CFF901D0935700E89507B600FCFDCFF9
:10722000F90110935700E89507B600FCFDCF0093D5
:107230005700E8958417950710F49C01D6CFE0E03D
:10724000F8E383E080935700E89507B600FCFDCF94
:1072500088E18093600088E080936000FFCF81E048
:1072600090E0DF91CF911F910F91089584B7877FB0
:1072700084BF88E10FB6F89480936000109260009C
:107280000FBE90E080E80FB6F89480936100909371
:1072900061000FBE81E085BF82E085BF3F9AE1E6D5
:1072A000F0E090E8908310824798109289009AEF5E
:1072B0009093880080936F0083E080938100A7C340
:1072C0001F920F920FB60F9211242F938F939F93BB
:1072D000EF93FF931092850010928400E0E0F0E0BD
:1072E00085919491019649F08091B8019091B901EE
:1072F00001969093B9018093B801FF91EF919F910E
:107300008F912F910F900FBE0F901F90189542E014
:1073100061EC82E00FD342E161E883E00BD342E10C
:1073200060E884E007C38091C201982F9F77913273
:1073300039F59091C301903291F0913209F5813A7B
:10734000F9F48091E800877F8093E80067E070E0BF
:1073500083E091E022D48091E8008B770FC08132E6
:1073600079F48091E800877F8093E80067E070E01F
:1073700083E091E06BD48091E8008E778093E80001
:1073800008954F925F926F927F928F929F92AF92E9
:10739000BF92CF92DF92EF92FF92CF93DF9384E080
:1073A0008093E9008091E80082FF29C2B6DED82FE1
:1073B000853481F48CEA9DE09093B9018093B80103
:1073C00007B600FCFDCFF999FECF81E1809357000D
:1073D000E89503C0843521F4A0DE8DE0B6DEE6C179
:1073E0008C34D9F38035C9F3843721F484E4ADDEDD
:1073F00080E0F4CF813611F489E5F0CF813491F447
:107400008CDEC82F8ADE90E0880F991F2C2F30E089
:10741000322F2227330F822B932BAA2797FDA0957B
:10742000BA2F98C1803711F483E5D8CF833549F45A
:10743000CEEAD1E0899189DE21E0C53BD207D1F7C0
:10744000B5C1863521F481E380DE80E3C7CF833781
:1074500031F487E87ADE85E978DE8EE1BFCF8536C4
:10746000B9F4E0E0F0E083E095E080935700E89520
:1074700007B600FCFDCF90935700E89507B600FCD7
:10748000FDCFE058FF4FE11520E7F20771F7A5CFD8
:10749000823719F4E1E0F0E00EC0863419F4E0E040
:1074A000F0E009C08E3419F4E3E0F0E004C0813567
:1074B00039F4E2E0F0E089E08093570084918ECFC8
:1074C000823631F489E541DE80E03FDE80E886CF18
:1074D000823419F0873609F0D5C01092B9011092A4
:1074E000B8011BDED82E19DEE82E17DEC82F8BEB75
:1074F0008C0F823010F08FE371CFF12CFD281092A9
:107500006F00D73609F045C081E180935700E895B8
:107510005701912CD1E0A114B10409F4AFC0C0907F
:10752000BA01D090BB01E090BC01F090BD01C6341F
:10753000B9F4E92DF0E0EC29FD29849106DE9920CB
:1075400069F082E0C80ED11CE11CF11CC092BA01A6
:10755000D092BB01E092BC01F092BD019D2615C006
:10756000D701C601B695A79597958795BAD4EDDD55
:10757000E2E0CE0ED11CE11CF11CC092BA01D09207
:10758000BB01E092BC01F092BD01F1E0AF1AB1087D
:10759000C2CF8090BA019090BB01A090BC01B09086
:1075A000BD01C63421F0C12CD12CD1E030C083E024
:1075B000F40180935700E89507B600FCFDCFF3CFA8
:1075C000C63461F5DD2039F14090BA015090BB011D
:1075D0006090BC017090BD01A0DD2C2D30E0382BF7
:1075E000F2010901D0935700E8951124F2E04F0E03
:1075F000511C611C711C4092BA015092BB016092F7
:10760000BC017092BD01DD2621E0E21AF108E1140F
:10761000F104B1F627C081DDC82EF5CF7EDD682FDD
:107620008091BA019091BB01A091BC01B091BD01C4
:10763000B695A795979587955CD44091BA015091DE
:10764000BB016091BC017091BD014E5F5F4F6F4FF8
:107650007F4F4093BA015093BB016093BC0170937C
:10766000BD01D2CFC63441F485E0F40180935700C8
:10767000E89507B600FCFDCF8DE067DD82E08093E2
:107680006F0094C0833471F4C091BA01D091BB01F2
:1076900044DD90E021E0FE010C0120935700E895C5
:1076A00011249BCE833601F5C090BA01D090BB0166
:1076B000E090BC01F090BD0130DDF601E16090E0AA
:1076C00021E00C0120935700E8951124F2E0CF0E41
:1076D000D11CE11CF11CC092BA01D092BB01E09216
:1076E000BC01F092BD0179CE8D3661F4E091BA0112
:1076F000F091BB0185E080935700E89507B600FC48
:10770000FDCF6BCE823551F4E091BA01F091BB010F
:10771000C591D4918D2F19DD8C2F60CE843419F54D
:10772000FCDC682F8091BA019091BB01A091BC0153
:10773000B091BD01B695A79597958795DAD38091BD
:10774000BA019091BB01A091BC01B091BD0102961C
:10775000A11DB11D8093BA019093BB01A093BC0100
:10776000B093BD013ACE8436F1F4C090BA01D09006
:10777000BB01E090BC01F090BD01D701C601B695F8
:10778000A79597958795ADD3E0DC22E0C20ED11C7A
:10779000E11CF11CC092BA01D092BB01E092BC0185
:1077A000F092BD0103C08B3109F0A5CE83E0809338
:1077B000E9009091E8008091E8008E778093E800DE
:1077C00095FD11C08091E80080FD04C08EB3811149
:1077D000F9CF15C08091E8008E778093E80003C050
:1077E0008EB3882361F08091E80080FFF9CF84E0B8
:1077F0008093E9008091E8008B778093E800DF9127
:10780000CF91FF90EF90DF90CF90BF90AF909F907F
:107810008F907F906F905F904F9008950F931F937C
:10782000CF93DF93C0910008D09101081092010816
:107830001092000814B714BE88E10FB6F894809334
:107840006000109260000FBE11FD0DC0012F087086
:1078500013FDB7DC10FF1EC0E0E0F0E085919491CD
:107860000196C1F089DC02DD78941092B901109282
:10787000B801809102018823E9F083DD1BD3809158
:10788000B8019091B901813A9F4010F01092020125
:1078900083DCEFCF002339F3809100019091010147
:1078A000C817D90701F3E0E0F0E0859194910196C3
:1078B000C9F6D9CF8091E00081608093E0005CDC64
:1078C00080E090E0DF91CF911F910F910895292FD3
:1078D00030E02230310539F02330310549F02130D4
:1078E000310561F410C08EE390E02EE531E01EC05A
:1078F000882371F0813089F08230A1F080E090E03F
:1079000020E030E013C082E190E02CE931E00EC0CD
:1079100084E090E02AE531E009C08EE190E026E3C2
:1079200031E004C08AE290E02AE031E0FA013183DC
:10793000208308958093E900EBEEF0E08081816080
:107940008083EDEEF0E010826093EC004083809144
:10795000EE00881F8827881F08958091C20187FD47
:1079600005C08091E80080FF0DC010C08091E80044
:1079700082FD04C08EB38111F9CF08958091E80093
:107980008B7707C08EB38111ECCF08958091E8000A
:107990008E778093E80008950F931F93CF93DF9322
:1079A00041D048D0C8EDD0E088818F778883888126
:1079B0008068888388818F7D888319BC1EBA109265
:1079C000C00100EE10E0F80180818B7F8083888108
:1079D0008160888342E060E080E0ACDFE1EEF0E0CF
:1079E00080818E7F8083E2EEF0E080818160808301
:1079F000808188608083F80180818E7F8083888188
:107A000080618883DF91CF911F910F910895E7EDF9
:107A1000F0E08081816080838AE482BF81E080938E
:107A2000C101BACFE8EDF0E080818E7F80831092B3
:107A3000E20008951092DA001092E10008951F927A
:107A40000F920FB60F9211242F933F934F935F9392
:107A50006F937F938F939F93AF93BF93EF93FF9316
:107A60008091DA0080FF19C08091D80080FF15C096
:107A70008091DA008E7F8093DA008091D90019BC62
:107A800080FF09C082E089BD09B400FEFDCF81E01E
:107A90008EBB0FD202C01EBA0CD28091E10080FFD3
:107AA00017C08091E20080FF13C08091E2008E7FBA
:107AB0008093E2008091E20080618093E2008091F7
:107AC000D80080628093D80019BC85E08EBBF1D1CC
:107AD0008091E10084FF2BC08091E20084FF27C0E9
:107AE00019BC82E089BD09B400FEFDCF8091D800A9
:107AF0008F7D8093D8008091E1008F7E8093E1009C
:107B00008091E2008F7E8093E2008091E2008160AC
:107B10008093E2008091C001811104C08091E30054
:107B200087FF02C084E001C081E08EBBC2D180919A
:107B3000E10083FF21C08091E20083FF1DC080919E
:107B4000E100877F8093E10082E08EBB1092C0014C
:107B50008091E1008E7F8093E1008091E2008E7F32
:107B60008093E2008091E20080618093E20042E035
:107B700060E080E0DFDE9DD1FF91EF91BF91AF919A
:107B80009F918F917F916F915F914F913F912F9135
:107B90000F900FBE0F901F9018952091C801309143
:107BA000C9012617370748F06115710539F420918E
:107BB000E8002E772093E80001C0B901FC0120E025
:107BC00061157105A1F18EB38823E1F18530E1F1F2
:107BD0008091E80083FD34C08091E80082FF06C0F8
:107BE0008091E80082FF26C080E008958091E8003F
:107BF00080FFE6CF2091F3008091F20090E0922B7D
:107C00006115710551F08830910538F42191209368
:107C1000F100615071090196F3CF21E0089709F056
:107C200020E08091E8008E778093E800C9CF211191
:107C3000CACFD6CF8EB3882329F0853089F604C009
:107C400081E0089582E0089583E00895611571054B
:107C500029F42091E8002B772093E8006115710545
:107C600031F12EB3222361F1253061F12091E8003A
:107C700023FD22C02091E80022FFF3CFFC01CF01B9
:107C80004091F3002091F20030E0342B232B09F3D4
:107C90008091F1008193CF016150710961157105E7
:107CA00071F7D7CF8EB3882359F0853059F0809182
:107CB000E80080FFF7CF02C081E0089580E00895DA
:107CC00082E0089583E008950F931F93CF93DF938D
:107CD00000D0CDB7DEB7E2ECF1E08091F100819306
:107CE00081E0EA3CF807C9F71EDB8091E80083FFDA
:107CF000CBC02091C2013091C301832F90E08A3024
:107D0000910508F0C1C0FC01E959F74CE4C02238E4
:107D100009F0BAC08091C60187708093E900909104
:107D2000EB001092E9008091E800877F8093E800E3
:107D300095FB882780F98093F1001092F10082C0B2
:107D4000822F8D7F09F0A0C0223009F09DC0809164
:107D5000C401811124C02091C601277009F494C088
:107D60002093E9008091EB0080FF19C08091EB0027
:107D7000333011F4806211C080618093EB0081E0A8
:107D800090E0022E01C0880F0A94EAF78093EA007F
:107D90001092EA008091EB0088608093EB001092D3
:107DA000E9008091E800877F50C021116DC01091DB
:107DB000C4011F770FB7F8948091E800877F809304
:107DC000E800CBDD8091E80080FFFCCF8091E300EC
:107DD0008078812B8093E30080688093E3001123F7
:107DE00011F083E001C082E08EBB0FBF4DC0205870
:107DF000223008F049C0AE014F5F5F4F6091C6016D
:107E00008091C4019091C50162DD009709F43CC0E6
:107E10002091E800277F2093E800BC0189819A81A6
:107E2000BCDE8091E8008B778093E8002DC020387D
:107E300059F58091E800877F8093E8008091C00128
:107E40008093F1008091E8008E778093E80085DDD3
:107E50001BC0211119C09091C4019230A8F48091E7
:107E6000E800877F8093E8009093C00176DD8091E1
:107E7000C001811104C08091E30087FF02C084E04B
:107E800001C081E08EBB43DA8091E80083FF0AC025
:107E90008091EB0080628093EB008091E800877F07
:107EA0008093E8000F900F90DF91CF911F910F9179
:107EB00008950895CF938EB3882359F0C091E900B7
:107EC000C7701092E9008091E80083FDFDDEC09349
:107ED000E900CF910895EE0FFF1F0590F491E02D7A
:107EE0000994F999FECF92BD81BDF89A992780B582
:107EF0000895262FF999FECF1FBA92BD81BD20BDEE
:107F00000FB6F894FA9AF99A0FBE01960895F8946C
:027F1000FFCFA1
:107F1200777701000000000000082A035300700078
:107F2200610072006B00460075006E002000450083
:107F32006C0065006300740072006F006E006900DF
:107F42006300730000001E034C0069006C0079009E
:107F520050006100640055005300420020002000E0
:107F62002000200020002000000004030904090270
:107F72003E000201008032090400000102020100F9
:107F8200052400100104240204052406000107054B
:107F920082030800FF09040100020A00000007052D
:107FA20004021000010705830210000112011001F2
:107FB200020000084F1B0792010002010001434129
:087FC200544552494E410000F4
:040000030000700089
:00000001FF
